:020000040800F2
:1000000000000520A51F00089D1B00089F1B00087D
:10001000A11B0008A31B0008A51B0008000000008E
:1000200000000000000000000000000011AA00080D
:10003000A71B000800000000B1AA000815AB0008CB
:10004000F51F0008F51F0008F51F0008F51F000840
:10005000F51F0008F51F0008F51F0008F51F000830
:10006000F51F0008F51F0008F51F0008F51F000820
:10007000F51F0008F51F0008F51F0008F51F000810
:10008000F51F0008F51F0008F51F0008F51F000800
:10009000F51F0008F51F0008F51F0008F51F0008F0
:1000A000F51F0008F51F0008F51F0008F51F0008E0
:1000B000F51F0008F51F0008F51F0008F51F0008D0
:1000C000F51F0008F51F0008F51F0008F51F0008C0
:1000D000F51F0008F51F0008F51F0008F51F0008B0
:1000E000F51F0008F51F0008F51F0008F51F0008A0
:1000F000F51F0008F51F0008F51F0008F51F000890
:10010000F51F0008A91B0008F51F0008F51F0008CF
:10011000F51F0008F51F0008B51B0008F51F0008B3
:10012000F51F0008F51F0008F51F0008C11B000897
:10013000F51F0008F51F0008F51F0008F51F00084F
:10014000F51F0008F51F0008F51F0008F51F00083F
:10015000F51F0008CD1B0008F51F0008F51F00085B
:10016000F51F0008F51F0008F51F0008F51F00081F
:10017000F51F0008F51F0008F51F0008000000002B
:10018000F51F0008F51F0008F51F0008F51F0008FF
:10019000F51F0008F51F0008F51F0008F51F0008EF
:1001A000D91B0008F51F0008E51B0008F51F000813
:1001B000F51F0008F51F0008F51F0008F51F0008CF
:0801C000F51F0008F51F0008FF
:1001D00010B5054C237833B9044B13B10448AFF381
:1001E00000800123237010BD2801002000000000C2
:1001F0006CE6020808B5034B1BB103490348AFF393
:10020000008008BD000000002C0100206CE6020800
:10021000034613F8012B002AFBD1181A0138704746
:1002200001F0FF01102A2BDB10F0070F08D010F8A7
:10023000013B013A8B422DD010F0070F42B3F6D1AB
:10024000F0B441EA012141EA014122F007047FF0C4
:1002500000070023F0E80256083C85EA010586EA1B
:10026000010685FA47F5A3FA87F586FA47F6A5FA57
:1002700087F68EB9EED1F0BC01F0FF0102F0070263
:1002800032B110F8013B013A83EA010313B1F8D10E
:100290000020704701387047002D06BF35460338EF
:1002A000073815F0010F07D1013015F4807F02BF28
:1002B000013015F4C03F0130F0BC0138704700BF79
:1002C00081F0004102E000BF83F0004330B54FEA07
:1002D00041044FEA430594EA050F08BF90EA020F74
:1002E0001FBF54EA000C55EA020C7FEA645C7FEA07
:1002F000655C00F0E2804FEA5454D4EB5555B8BF2A
:100300006D420CDD2C4480EA020281EA030382EA9A
:10031000000083EA010180EA020281EA0303362D2C
:1003200088BF30BD11F0004F4FEA01314FF4801CFF
:100330004CEA113102D0404261EB410113F0004F11
:100340004FEA03334CEA133302D0524263EB4303C8
:1003500094EA050F00F0A780A4F10104D5F1200E66
:100360000DDB02FA0EFC22FA05F2801841F10001C1
:1003700003FA0EF2801843FA05F359410EE0A5F195
:1003800020050EF1200E012A03FA0EFC28BF4CF0C6
:10039000020C43FA05F3C01851EBE37101F000457C
:1003A00007D54FF0000EDCF1000C7EEB00006EEB89
:1003B0000101B1F5801F1BD3B1F5001F0CD3490813
:1003C0005FEA30004FEA3C0C04F101044FEA44526A
:1003D00012F5800F80F09A80BCF1004F08BF5FEAF1
:1003E000500C50F1000041EB045141EA050130BDD1
:1003F0005FEA4C0C404141EB0101013C28BFB1F5E3
:10040000801FE9D291F0000F04BF01460020B1FA2D
:1004100081F308BF2033A3F10B03B3F120020CDA00
:100420000C3208DD02F1140CC2F10C0201FA0CF0DE
:1004300021FA02F10CE002F11402D8BFC2F1200C43
:1004400001FA02F120FA0CFCDCBF41EA0C019040F9
:10045000E41AA2BF01EB0451294330BD6FEA040442
:100460001F3C1CDA0C340EDC04F11404C4F120022D
:1004700020FA04F001FA02F340EA030021FA04F33F
:1004800045EA030130BDC4F10C04C4F1200220FA96
:1004900002F001FA04F340EA0300294630BD21FAD4
:1004A00004F0294630BD94F0000F83F4801306BF9A
:1004B00081F480110134013D4EE77FEA645C18BF8E
:1004C0007FEA655C29D094EA050F08BF90EA020F25
:1004D00005D054EA000C04BF1946104630BD91EA1D
:1004E000030F1EBF0021002030BD5FEA545C05D120
:1004F0004000494128BF41F0004130BD14F580045F
:100500003CBF01F5801130BD01F0004545F0FE41D2
:1005100041F470014FF0000030BD7FEA645C1ABF07
:10052000194610467FEA655C1CBF0B46024650EA3E
:10053000013406BF52EA033591EA030F41F400216A
:1005400030BD00BF90F0000F04BF0021704730B5F0
:100550004FF4806404F132044FF000054FF00001C5
:1005600050E700BF90F0000F04BF0021704730B586
:100570004FF4806404F1320410F0004548BF40425B
:100580004FF000013EE700BF42004FEAE2014FEAB0
:1005900031014FEA02701FBF12F07F4393F07F4F8B
:1005A00081F06051704732F07F4208BF704793F08E
:1005B0007F4F04BF41F40021704730B54FF46074A1
:1005C00001F0004521F000411CE700BF50EA0102A4
:1005D00008BF704730B54FF000050AE050EA01024D
:1005E00008BF704730B511F0004502D5404261EBBD
:1005F00041014FF4806404F132045FEA915C3FF4FE
:10060000D8AE4FF003025FEADC0C18BF03325FEA9A
:10061000DC0C18BF033202EBDC02C2F1200300FA4B
:1006200003FC20FA02F001FA03FE40EA0E0021FA70
:1006300002F11444BDE600BF70B54FF0FF0C4CF45E
:10064000E06C1CEA11541DBF1CEA135594EA0C0F10
:1006500095EA0C0F00F0DEF82C4481EA030621EA4B
:100660004C5123EA4C5350EA013518BF52EA033586
:1006700041F4801143F4801338D0A0FB02CE4FF038
:100680000005E1FB02E506F00042E0FB03E54FF068
:100690000006E1FB03569CF0000F18BF4EF0010E60
:1006A000A4F1FF04B6F5007F64F5407404D25FEA5C
:1006B0004E0E6D4146EB060642EAC62141EA55510F
:1006C0004FEAC52040EA5E504FEACE2EB4F1FD0C51
:1006D00088BFBCF5E06F1ED8BEF1004F08BF5FEACF
:1006E000500E50F1000041EB045170BD06F0004681
:1006F00046EA010140EA020081EA0301B4EB5C042E
:10070000C2BFD4EB0C0541EA045170BD41F4801125
:100710004FF0000E013C00F3AB8014F1360FDEBF4A
:10072000002001F0004170BDC4F10004203C35DA26
:100730000C341BDC04F11404C4F1200500FA05F3A9
:1007400020FA04F001FA05F240EA020001F000424A
:1007500021F0004110EBD37021FA04F642EB0601C0
:100760005EEA430E08BF20EAD37070BDC4F10C04EA
:10077000C4F1200500FA04F320FA05F001FA04F2AE
:1007800040EA020001F0004110EBD37041F100019A
:100790005EEA430E08BF20EAD37070BDC4F12005A5
:1007A00000FA05F24EEA020E20FA04F301FA05F20D
:1007B00043EA020321FA04F001F0004121FA04F2B5
:1007C00020EA020000EBD3705EEA430E08BF20EA85
:1007D000D37070BD94F0000F0FD101F000464000BF
:1007E00041EB010111F4801F08BF013CF7D041EA41
:1007F000060195F0000F18BF704703F00046520045
:1008000043EB030313F4801F08BF013DF7D043EA15
:100810000603704794EA0C0F0CEA135518BF95EACB
:100820000C0F0CD050EA410618BF52EA4306D1D152
:1008300081EA030101F000414FF0000070BD50EA71
:10084000410606BF1046194652EA430619D094EAFB
:100850000C0F02D150EA013613D195EA0C0F05D1E5
:1008600052EA03361CBF104619460AD181EA030139
:1008700001F0004141F0FE4141F470014FF00000F1
:1008800070BD41F0FE4141F4780170BD70B54FF08C
:10089000FF0C4CF4E06C1CEA11541DBF1CEA13550C
:1008A00094EA0C0F95EA0C0F00F0A7F8A4EB0504EE
:1008B00081EA030E52EA03354FEA013100F08880E5
:1008C0004FEA03334FF0805545EA131343EA1263AE
:1008D0004FEA022245EA111545EA10654FEA002663
:1008E0000EF000419D4208BF964244F1FD0404F51C
:1008F000407402D25B084FEA3202B61A65EB030578
:100900005B084FEA32024FF480104FF4002CB6EB34
:10091000020E75EB030E22BFB61A754640EA0C00B4
:100920005B084FEA3202B6EB020E75EB030E22BFF4
:10093000B61A754640EA5C005B084FEA3202B6EB35
:10094000020E75EB030E22BFB61A754640EA9C00F4
:100950005B084FEA3202B6EB020E75EB030E22BFC4
:10096000B61A754640EADC0055EA060E18D04FEA82
:10097000051545EA16754FEA06164FEAC30343EA22
:1009800052734FEAC2025FEA1C1CC0D111F4801FEF
:100990000BD141EA00014FF000004FF0004CB6E7E8
:1009A00011F4801F04BF01430020B4F1FD0C88BF87
:1009B000BCF5E06F3FF6AFAEB5EB030C04BFB6EB92
:1009C000020C5FEA500C50F1000041EB045170BD85
:1009D0000EF0004E4EEA113114EB5C04C2BFD4EBB2
:1009E0000C0541EA045170BD41F480114FF0000E36
:1009F000013C90E645EA060E8DE60CEA135594EAB2
:100A00000C0F08BF95EA0C0F3FF43BAF94EA0C0FB4
:100A10000AD150EA01347FF434AF95EA0C0F7FF429
:100A200025AF104619462CE795EA0C0F06D152EA7D
:100A300003353FF4FDAE1046194622E750EA410661
:100A400018BF52EA43067FF4C5AE50EA41047FF472
:100A50000DAF52EA43057FF4EBAE12E74FEA4102D5
:100A6000B2F1E04324BFB3F5001CDCF1FE5C0DD90C
:100A700001F0004C4FEAC0024CEA5070B2F1004F56
:100A800040EB830008BF20F00100704711F0804F59
:100A900021D113F13872BCBF01F00040704741F41E
:100AA00080114FEA5252C2F11802C2F1200C10FA22
:100AB0000CF320FA02F018BF40F001004FEAC12306
:100AC0004FEAD32303FA0CFC40EA0C0023FA02F3AA
:100AD0004FEA4303CCE77FEA625307D150EA013380
:100AE0001EBF4FF0FE4040F44000704701F0004050
:100AF00040F0FE4040F40000704700BF53B94AB9CF
:100B0000002908BF00281CBF4FF0FF314FF0FF3015
:100B100000F070B9ADF1080C6DE904CE00F006F8F4
:100B2000DDF804E0DDE9022304B070472DE9F04769
:100B3000089E0D4604460F46002B4AD18A42944631
:100B400065D9B2FA82F343B102FA03FCC3F1200281
:100B50009F4020FA02F217439C404FEA1C4E1FFAB6
:100B60008CF5B7FBFEF1220C0EFB117742EA07422F
:100B700001FB05F090420AD91CEB020201F1FF379C
:100B800080F01C81904240F2198102396244121AAD
:100B9000A4B2B2FBFEF00EFB102244EA024400FBBA
:100BA00005F5A5420AD91CEB040400F1FF3280F0E0
:100BB0000781A54240F204816444023840EA0140C2
:100BC000641B00211EB1DC400023C6E90043BDE8E0
:100BD000F0878B4208D9002E00F0ED800021C6E995
:100BE00000050846BDE8F087B3FA83F1002949D132
:100BF000AB4202D3824200F2F880841A65EB030212
:100C000001201746002EE2D0C6E90047DFE702B90F
:100C1000FFDEB2FA82F3002B40F090808A1A4FEA8E
:100C20001C471FFA8CFE0121B2FBF7F507FB1520CC
:100C3000220C42EA00420EFB05F0904208D91CEB60
:100C4000020205F1FF3802D2904200F2CB80454605
:100C5000121AA4B2B2FBF7F007FB102244EA0244D6
:100C60000EFB00FEA64508D91CEB040400F1FF3280
:100C700002D2A64500F2BB801046A4EB0E0440EA67
:100C800005409FE7C1F120078B4022FA07FC4CEAA0
:100C9000030C05FA01F420FA07F3FD404FEA1C4962
:100CA0002343B5FBF9F81FFA8CFE09FB18551C0C01
:100CB00044EA054408FB0EF5A54202FA01F200FAE7
:100CC00001F00BD91CEB040408F1FF3A80F0888096
:100CD000A54240F28580A8F102086444641B9DB2DD
:100CE000B4FBF9F309FB134445EA044403FB0EFE8D
:100CF000A64508D91CEB040403F1FF356CD2A645C8
:100D00006AD9023B644443EA0843A3FB0295A4EB7F
:100D10000E04AC42C846AE4656D353D056B1B0EBE3
:100D2000080264EB0E0404FA07F7CA40CC401743EC
:100D3000C6E9007418460021BDE8F087C3F1200120
:100D400002FA03FC20FA01F225FA01F19D402A4340
:100D50004FEA1C471FFA8CFEB1FBF7F007FB10159A
:100D6000110C41EA054100FB0EF58D4204FA03F433
:100D700008D91CEB010100F1FF382FD28D422DD98B
:100D800002386144491B92B2B1FBF7F507FB15111C
:100D900042EA014205FB0EF1914208D91CEB020226
:100DA00005F1FF3816D2914214D9023D6244521A1D
:100DB00045EA004138E73146304608E73946E6E67D
:100DC0001046FBE64845A9D2B9EB020865EB0C0ECC
:100DD000013BA3E74546EAE72B4694E74046D1E7C7
:100DE000D0467BE7023D624432E708460AE76444A6
:100DF000023842E7704700BF014900200BF024B8D9
:100E0000A124000808B5642009F0F4F9FBE700000C
:100E100010B594B01022002102240AA82CF045FC41
:100E20001422002103A82CF040FC1D4B192108A816
:100E30001A6C42F080521A641B6C03F080530193C9
:100E4000019B184B1A6842F440421A6001221B6849
:100E5000129403F440430293029B4FF48033CDE994
:100E600008234FF48003CDE90E434FF4D873CDE946
:100E700010130923139305F09FFC05F041F90F238C
:100E800000200721CDE903344FF4A053CDE9050339
:100E90004FF4805303A8079305F076FE14B010BDFD
:100EA00000380240007000402DE980489BB01022BD
:100EB000002101250DA84FF0104B2CF0F6FB00246B
:100EC00003F0DEFECA4B0DA8ADF834501094CDE906
:100ED0000EB303F0F3FE17230DA88DF835508DF8EF
:100EE0003C308DF8425003F0E9FE042003F0D6FEBA
:100EF000BFF34F8FBFF36F8FBE4AC2F85042BFF3AC
:100F00004F8FBFF36F8F536943F400335361BFF3C7
:100F10004F8FBFF36F8FC2F88440BFF34F8FD2F86B
:100F2000803043F6E074C3F3C900C3F34E335B0172
:100F300003EA0406014646EA81750139C2F86052A7
:100F4000F9D2203B13F1200FF2D1BFF34F8F536939
:100F500043F480335361BFF34F8FBFF36F8FA64DC0
:100F600003F0F4FDFFF754FF142200210DA82CF02C
:100F70009CFB2B6B0022102143F010039F480024A0
:100F800001262B6310272B6B4FF003084FF4805A78
:100F90004FF0400B03F010034FF004090293029B43
:100FA0002B6B43F002032B632B6B03F002030393C1
:100FB000039B2B6B43F004032B632B6B03F00403A5
:100FC0000493049B2B6B43F001032B632B6B03F007
:100FD00001030593059B2B6B43F040032B632B6BA5
:100FE00003F040030693069B2B6B43F400732B63C3
:100FF0002B6B03F400730793079B2B6B43F00803E1
:101000002B632B6B03F008030893089B2B6B43F4B3
:1010100080632B632B6B03F480630993099B2B6B19
:1010200043F020032B632B6B03F020030A930A9BEE
:101030002B6B43F480732B632B6B03F480730B9344
:101040000B9B2B6B43F080032B632B6B03F0800314
:101050000C930C9B04F026FB01220821684804F045
:1010600021FB01224FF48051664804F01BFB002253
:10107000C021654804F016FB00224021634804F0BB
:1010800011FB0DA95D48CDE90F48CDE90D7604F0BF
:1010900081F94FF400530DA95B480F96CDE90D344B
:1010A00004F078F908230DA95548CDE90D36CDE9AE
:1010B0000F4404F06FF90DA95248CDE90DA6CDE912
:1010C0000F4404F067F9C0230DA94F48CDE90D3650
:1010D000CDE90F4804F05EF90DA94C48CDE90DB6F5
:1010E000CDE90F4804F056F92B6B2246052143F455
:1010F00080033B202B632B6B454D03F4800301934E
:10110000019B03F06BFD3B2003F09AFD2246052175
:10111000452003F063FD452003F092FD3D4B28463A
:10112000C5E90A44C5E90C44C5E90034C5E90244EF
:1011300004F030F831462846374D04F0E3F84FF418
:10114000C072364B0DA9C5F814B04FF0020B2846FB
:10115000AC60AC62CDF84CB0C5E906244FF4006237
:10116000C5E9082ADFF8B8A00722C5E90034C5E9B7
:101170000397CDE90F92CDE90DB2CDE9118B06F0C1
:10118000EDFD51464FF6FF7228460094CAE900670C
:10119000CAE9026406F002FE304603F0FBFC514649
:1011A0004FF6FF722846CAE900B7CAE9026406F0A2
:1011B000F5FD082351464FF6FF722846CAE902346E
:1011C000CAE9008706F0EAFD4FF40C725146284642
:1011D00000924FF48068009ACAF80860CAF80C20A0
:1011E0004FF6FF72CAE9009706F0D8FD1AE000BF7B
:1011F0001B00000300ED00E0003802400004024044
:10120000002802400020024000080240001802406E
:101210008001002000B002404C040020400100A0EA
:101220004401002040F22B712846614D06F0D5FDA7
:1012300043F2D2014FF020426420DFF8C8A11160D0
:1012400003F0A8FC5B4B5C4A28462C62C5E90032DF
:10125000C5E90246C5E90444C5E9064404F04AFB71
:101260002146284604F068FD21462846534D04F0E7
:1012700089FD342221460DEB02002CF016FA504A6B
:101280002821352040F2152C40F2352EAC862C61F9
:1012900085F83640C5E900240922C5E905120B226C
:1012A000C5E9070240F21B122846C5E909C240F20F
:1012B0001D12C5E90244C5E90BE204F00BFEFF2054
:1012C0004FF4F0714FF488720D941892ADF86440A9
:1012D0008DF86640CDE912040520CDE914804FF069
:1012E0004040CDE90E14CDE91601CDE9102B0DA932
:1012F0002246284604F0B9FE3248334A4FF4A06330
:101300000462C0E902974FF01809C0E90026C0E95D
:101310000493C0E9064405F00DF803F095FA03F0D4
:10132000D9F95C2003F09AFC00F03AFE274A284BDA
:1013300028489C6184800662C3E90024C3E9024412
:10134000C3E90444244BC0E90544036003F0E2FC14
:1013500022484FF4E133C0E900A30C230461446246
:10136000C0E90534C0E90244C0E9074407F045F983
:1013700000F096FC00F040FE00F03DFE08F088FE14
:10138000174A2146174808F0E1FE174B174A214635
:101390001860174808F0DAFE164B174A2146186005
:1013A000164808F0D3FE164B186008F09BFEFEE7C7
:1013B00080020020005C004068474020D4020020EA
:1013C000006801407C030020001000A0002C0140B8
:1013D000C80300205C01002000300240800400208F
:1013E00010E70208050E000858010020ECE602088C
:1013F000072000085401002034E70208893800085B
:1014000008050020001001400268034B9A4201D1F8
:1014100003F0AEBB704700BF0010004070470000F3
:101420000D4B82B00F216FF001001A6C42F0805218
:101430001A641A6C02F080520092009A5A6C42F4BC
:1014400080425A6400225B6C03F480430193019B49
:1014500002B003F0C3BB00BF00380240026882B094
:10146000084B9A420BD1D3F8302803F5006342F4BD
:1014700080521A631B6B03F480530193019B02B0EB
:10148000704700BF003002400E4B07B502689A4219
:1014900015D1A3F5F04305215A201A6B42F400023E
:1014A0001A6300221B6B03F400030193019B03F0FA
:1014B00095FB5A2003B05DF804EB03F0C1BB03B009
:1014C0005DF804FB00B0024010B5A8B00446142239
:1014D000002102A82CF0E9F88422002107A82CF0B2
:1014E000E4F82268174B9A422AD14FF4803307A8B8
:1014F000079305F025FC08B1FFF790FF124C4FF45D
:10150000C07201211148236B43F080032363236BD6
:1015100003F080030093009B1223CDE902230323F1
:10152000CDE90413042302A9069303F033FF236CCF
:1015300043F400032364236C03F400030193019B31
:1015400028B010BD005C004000380240001C024082
:10155000026808B5094B9A420FD1094A802109480F
:10156000136C23F40003136403F0F6FF4FF480714F
:101570000448BDE8084003F0EFBF08BD005C004030
:1015800000380240001C024070B5ACB00446142282
:10159000002106A82CF089F8842200210BA82CF049
:1015A00084F82268484B9A4240F08C80082305203A
:1015B00001240B934FF4C07310930223CDE9113033
:1015C0004FF400330BA8CDE9154305F0B9FB08B182
:1015D000FFF724FF3D4B002402250E265A6C06A976
:1015E0003B4842F080625A645A6C02F0806200927A
:1015F000009A1A6B42F010021A631A6B02F0100282
:101600000192019A1A6B42F400721A631A6B02F487
:1016100000720292029A1A6B42F480621A631A6B89
:1016200002F480620392039A1A6B42F040021A633A
:101630001A6B02F040020492049A1A6B42F4807210
:101640001A631B6B03F480730593059B1023CDE98C
:101650000635CDE908440A9603F09CFE4EF6FF736A
:1016600006A91C480A96CDE90635CDE9084403F0E1
:1016700091FEF72306A918480A96CDE90635CDE96B
:10168000084403F087FE4FF4805306A91348CDE9C0
:1016900006350923CDE908440A9303F07BFE4FF495
:1016A000464306A90E480A96CDE90635CDE9084419
:1016B00003F070FE58202246052103F08FFA5820CF
:1016C00003F0BEFA2CB070BD006801400038024043
:1016D000001002400024024000280240001802408E
:1016E00000200240142200212DE9F0418AB0044676
:1016F0000DEB02002BF0D9FF22682C4B9A4251D1FE
:101700002B4B0225032409269A6B4FF0040805A9E8
:10171000284842F0020200279A639A6B02F0020204
:101720000192019A1A6B42F010021A631A6B02F0CE
:1017300010020292029A1A6B42F002021A631A6BAA
:1017400002F002020392039A1A6B42F008021A6333
:101750001B6B03F008030493049BCDE90585CDE9D9
:10176000084603F017FE402305A91348CDE90535C7
:101770000A23CDE90774099303F00CFE05A90E486E
:101780000996CDE90585CDE9077403F003FE4FF412
:10179000605305A909480996CDE90535CDE90774D7
:1017A00003F0F8FD0AB0BDE8F08100BF001000A012
:1017B000003802400010024000040240000C0240C9
:1017C000026808B50B4B9A4213D10B4A04210B480F
:1017D000936B23F00203936303F0BEFE4421084899
:1017E00003F0BAFE4FF460510648BDE8084003F02C
:1017F000B3BE08BD001000A0003802400010024037
:1018000000040240000C02402DE9F043ABB0054655
:101810001422002104A82BF048FF8422002109A8EB
:101820002BF043FF2A684E4B9A4240F095804FF4CC
:10183000200309A8099305F083FA08B1FFF7EEFD2C
:10184000484B00264FF0020903275A6C0C2404A9C8
:10185000454842F400624FF004085A645A6C02F49E
:1018600000620192019A1A6B42F004021A631A6B29
:1018700002F004020292029A1A6B42F008021A6302
:101880001B6B089403F008030393039B4FF4F85376
:10189000CDE90667CDE9043903F07CFD04A933489E
:1018A0000894334CCDE90489CDE9066703F072FD55
:1018B0004FF00063DFF8C4E04FF480694FF48042DA
:1018C0004FF400012046A762C4E900E34FF48053BF
:1018D000C4E904932023C4E906234FF40013C4E9A8
:1018E0000266C4E90868C4E90B1303F087FA08B17B
:1018F000FFF794FD1F4A4FF000632C644021A5635D
:101900004FF480601C4C04274FF480464FF4000CC9
:10191000C4E9002300234FF48052C4E90213236278
:101920000323C4E90402C4E9097320224FF400131D
:101930002046C4E90662C4E90BC303F05FFA08B1AC
:10194000FFF76CFD312000220521EC63A56303F055
:1019500045F9312003F074F92BB0BDE8F08300BFE6
:10196000002C01400038024000080240000C0240F8
:10197000C0010020A0640240200200205864024000
:10198000F0B5ABB004461422002104A82BF08DFE64
:101990008422002109A82BF088FE2268204B9A425D
:1019A0003CD1402309A8099305F0CAF908B1FFF713
:1019B00035FD1C4B0227002603255A6C072404A979
:1019C000194842F010025A645A6C02F01002019257
:1019D000019A1A6B42F002021A631A6B02F00202B9
:1019E0000292029A1A6B42F001021A631B6B08946E
:1019F00003F001030393039B8023CDE90665CDE942
:101A0000043703F0C7FC4FF4007304A90748089497
:101A1000CDE90437CDE9066503F0BCFC2BB0F0BD81
:101A20000010014000380240000402400000024063
:101A3000F0B5002387B00393294B1E68002E4DD1CB
:101A40000122022703250C241A6001A9254B2648F0
:101A50009A6B42F001029A639B6B03F001030093BF
:101A6000009B4FF68373CDE90454CDE9013703F0B1
:101A700091FC48F2331301A91C480594CDE90137C4
:101A8000CDE9036503F086FC4CF2037301A9184805
:101A90000594CDE90137CDE9036503F07BFC4FF6F2
:101AA0003F0301A913480594CDE90137CDE903654A
:101AB00003F070FC282301A90F480594CDE90137F4
:101AC000CDE9036503F066FC082301A90B480594E2
:101AD000CDE90137CDE9036503F05CFC07B0F0BD4B
:101AE0000C0500200038024000100240001802409F
:101AF000000C024000140240001C0240000802409A
:101B0000214B1A6C42F0100270B51A6488B01B6C3D
:101B1000054601A903A803F010030293029B05F0F8
:101B2000F1F8069B4BBB05F0CDF8184E184B33600F
:101B300040F2E733F360174BB0FBF3F3013B304661
:101B4000736000233361B360B36106F0B7FA0446F3
:101B500080B9304606F05AF9044658B9362003F0E9
:101B60006FF80F2D0DD822462946362003F036F89F
:101B7000094B1D60204608B070BD05F0A3F8400079
:101B8000D3E70124F6E700BF00380240100500202B
:101B90000010004040420F00400000207047FEE768
:101BA000FEE7FEE7FEE77047014805F0D5BF00BF3E
:101BB000C8030020014806F06BB900BF10050020E3
:101BC000014803F027BA00BFC0010020014803F01C
:101BD00021BA00BF20020020014804F0E9B900BF8B
:101BE000D4020020014803F003BB00BF80010020A5
:101BF0000120704708B52BF00DFE162303604FF04F
:101C0000FF3008BD08B52BF005FE16230360FEE784
:101C100070B50D4614460E46731B9C4201DC2046EF
:101C200070BDAFF3008006F8010BF5E770B50D4607
:101C300014460E46731B9C4201DC204670BD16F80C
:101C4000010BAFF30080F5E74FF0FF3070474FF422
:101C5000005300204B607047012070470020704700
:101C60000B4A0346116810B509B90A49116010689A
:101C700009490A4C0344091B8B4206D92BF0CAFDC3
:101C80000C2303604FF0FF3010BD1360FCE700BF72
:101C90005C0500201864012000000520000A0000F7
:101CA00008B50349034808F0D3F9034B187008BD81
:101CB000C409002058E70208C80900200020704726
:101CC00008B513460A460146034805F031FB0038C3
:101CD00018BF012008BD00BFC803002008B5134687
:101CE0000A460146034805F0B3FB003818BF01203F
:101CF00008BD00BFC803002008B5034805F0C8FEB2
:101D0000043818BF012008BDC8030020014601485F
:101D100005F021BEC8030020704708B5FFF7FCFF9F
:101D200008BD08B500F018F908BD08B500F026F99F
:101D300008BD012307B58DF8073000F01FF808B97A
:101D40008DF807009DF8070003B05DF804FB000064
:101D500008B5FFF7EEFF01280CD1074805F0E0FDBC
:101D600038B94FF40061044805F008FE003818BF88
:101D7000012008BD0220FCE7C80300204FF40051F9
:101D8000034808B503F088FCB0FA80F0400908BDAC
:101D900000080240134B30B51C7889B0154614F08A
:101DA00001041BD1032903D8DFE801F01A060C1245
:101DB0000424204609B030BD6846FFF7A7FF069B04
:101DC0002B60F6E76846FFF7A1FF079B2B80F0E743
:101DD0006846FFF79BFF079B5B0AF1E70324E8E7F0
:101DE0000C46E6E70400002010B50123054C2370E3
:101DF000FFF782FF18B9237803F0FE0323702078E1
:101E000010BD00BF0400002038B508F08BF947F280
:101E10002F55044608F086F9031BAB4202D94FF058
:101E2000FF3003E0FFF768FF0028F3D138BD000062
:101E300030B585B00C4601920093FFF7E5FF00280E
:101E4000DDE9002102DA012005B030BD2046FFF7B0
:101E500045FF02460028F6D10E4847F230530DF1F7
:101E60000E01006808F0EEFB0028ECD1BDF80E3042
:101E7000022BE8D108F056F947F22F55044608F036
:101E800051F9031BAB42DED8FFF736FF0028F6D12D
:101E9000DAE700BFCC09002030B585B00C460192CE
:101EA0000093FFF7B1FF0028DDE9002102DA0120ED
:101EB00005B030BD2046FFF703FF02460028F6D1EB
:101EC0000E4847F230530DF10E01006808F0BAFBDE
:101ED0000028ECD1BDF80E30012BE8D108F022F932
:101EE00047F22F55044608F01DF9031BAB42DED81C
:101EF000FFF702FF0028F6D1DAE700BFCC09002087
:101F000038B5134C0125257008F0DCF802281DD1E6
:101F1000FFF71EFF50B92570FFF7EEFE18B92378C2
:101F200003F0FE0323702378DBB223702378012BA8
:101F30000CD0084D2A684AB902210A2008F0FAFAA2
:101F4000286018B9237843F001032370207838BD46
:101F500004000020CC090020022307B5ADF80630AC
:101F6000002305480DF106011A46006808F028FB19
:101F700003B05DF804FB00BFCC090020012307B5C6
:101F8000ADF80630002305480DF106011A46006839
:101F900008F016FB03B05DF804FB00BFCC0900207D
:101FA00070470000DFF834D0002103E00C4B5B5891
:101FB000435004310B480C4B42189A42F6D30B4A5B
:101FC00002E0002342F8043B094B9A42F9D302F0A5
:101FD000D3FC2BF025FCFEF767FF704700000520BF
:101FE00064300308000000202801002028010020A0
:101FF00014640120FEE7704708B501F0F7F8BDE86A
:10200000084001F083B801F0F3B8406870474160C0
:10201000704700004FF0E022D2F8FC3D43F080739F
:10202000C2F8FC3D054B064AD3F8B01F0A43C3F87B
:10203000B02F1A6842F001021A607047001000E0E9
:1020400055CEACC5511A01EB5301B1FBF3F070470B
:10205000014B5868704700BF001000E0704710B592
:1020600004460C212BF0CDF8204610BD036810B5B6
:102070001B69044631B19847A26863689B1A1844EB
:10208000606010BD9847A060FBE70000024B702025
:10209000024A1360DB68184714000020D0090020B2
:1020A000704710B5044604212BF0ABF8204610BD54
:1020B00073B50E4E0D461446336813B9002002B0B6
:1020C00070BD1B69702098470028F7D033687020D6
:1020D00001AA0DF106015B699847BDF804300120A3
:1020E0002B60BDF806302360E9E700BFD00900206F
:1020F0007FB501238DF817204FF47A72CDE90132B4
:102100000DF1170200920A460146054803F05CFCF7
:1021100010B1034803F03FFC07B05DF804FB00BFBB
:10212000800200207FB500230A464FF47A718DF8B3
:1021300017300123CDE901310DF11701009101465E
:10214000054803F01BFD10B1034803F024FC9DF883
:10215000170007B05DF804FB80020020032823D895
:10216000DFE800F0020B131A104B102110481A6818
:10217000B2FA82F2520903F095BA0C4B40215A6828
:10218000B2FA82F252090B48F5E7084B80219A68AF
:10219000B2FA82F25209F6E7044B40210648DA68A7
:1021A000B2FA82F25209E6E7704700BFD409002074
:1021B000000402400008024000180240032823D80F
:1021C000DFE800F0020B131A104B102110481A68B8
:1021D000003A18BF012203F065BA0C4B40215A683F
:1021E000003A18BF01220B48F5E7084B80219A6896
:1021F000003A18BF0122F6E7044B40210648DA688E
:10220000003A18BF0122E6E7704700BFD40900205A
:1022100000040240000802400018024003280FD8C2
:10222000DFE800F00206090B1021064803F03FBA70
:1022300040210548FAE78021FBE740210348F5E704
:10224000704700BF0004024000080240001802402E
:1022500008B5032813D8DFE800F0020A0D0F10219B
:10226000084803F019FA431E5842584108BD40215E
:102270000548F6E78021FBE740210448F1E700200C
:10228000F1E700BF000402400008024000180240CD
:1022900070B5084D00240126E0B2FFF7D9FF18B150
:1022A0002B68012B18BF2E6001340435052CF3D1A7
:1022B00070BD00BFD4090020012380F8781080F899
:1022C000793070470020704741640039024B18BFD5
:1022D00001211970704700BFE357012000207047AB
:1022E000836B0BB10846184770474FF6FF70704775
:1022F000406803689B6918477047000038B504467A
:1023000001F080F8084923682046084DD3F88C3046
:1023100098470023284684F84A30FFF77BFE0123C4
:10232000256184F8703038BD000000C0E409002049
:1023300001F01EB801F022B870B501F08DF8104917
:102340000023C1F88430BFF34F8FD1F8803043F6BB
:10235000E074C3F3C900C3F34E335B0103EA040620
:10236000024646EA8275013AC1F87452F9D2203B1E
:1023700013F1200FF2D1BFF34F8FBFF36F8F70BDFA
:1023800000ED00E001F06AB800F0CEBF01F084B9C2
:1023900001F08CB900F0D2BF10B5044618F01CFB58
:1023A00023682046D3F8AC30BDE81040184717F03A
:1023B00071BD10B504467C212AF023FF204610BDD4
:1023C00090F87A301BB1406803681B6818471846BC
:1023D0007047000090F834100D4B10B590F878401D
:1023E0001A788C4209D03AB90A490B4A08881488ED
:1023F000108001220C801A7010BD002AFCD0064A01
:102400000449148808880C8010800022F3E700BF7C
:10241000DC570120DA570120D857012070B50D464E
:10242000194635B9094B40F2D221094A09482AF028
:1024300017FFC0E90F52003A074B18BF01221A706C
:102440000368BDE87040D3F88C301847ACE7020849
:10245000E4E7020832E80208E257012008B5094B18
:102460001B888B4203D8084B1B88934205D9074B26
:102470009E21074A07482AF0F3FE074B1980074BB5
:102480001A8008BDD8570120DA57012077E80208E2
:10249000DAE8020832E80208DE570120E05701209E
:1024A000014608B5034B186801B1012118F0AEFAD6
:1024B000012008BDE4570120034B00225A609A60B6
:1024C000024A1A60704700BFE409002074E702085E
:1024D0000121002208B5084607F044FF0A4B1860A6
:1024E00028B90A4B28210A4A0A482AF0B9FE0022D4
:1024F0000421012008F01EF8074B186018B9074B9B
:102500002C21034AF0E708BDF4090020F8E902088D
:1025100041EA020870EA0208F0090020B5EA020860
:10252000024B4FF0FF31186807F072BFF40900202A
:10253000014B186807F0A6BFF4090020024B0021E8
:10254000186807F065BF00BFF4090020FFF7F0BF6F
:102550000023034803491A46006808F031B800BF59
:10256000F00900200800002013B50023074C01A942
:102570001A46206808F066F84FF0FF33002201A9E0
:10258000206808F05FF802B010BD00BFF00900201D
:1025900003685B6C18470120704703689B6A184703
:1025A0000D4B82B01A6B42F400021A631A6B02F4EC
:1025B00000020192019A1A6942F400021A611A6932
:1025C00022F400021A61054B054A1A614FF080623D
:1025D000044B9A6002B0704700380240800100202E
:1025E0002926000800E100E040F2EF3070470000CB
:1025F000054B4FF080620360044BC3F88820BFF3A3
:102600004F8FBFF36F8F70474CEC020800E100E082
:1026100010B504464FF45A61FFF7EAFF20462AF04E
:10262000F0FD204610BD0000024B1B68586803688F
:102630005B691847E457012070B504460A4B0C301B
:1026400000262546602260602672667245F8203BAF
:10265000294618F017FB04F55A63EE602435AB42A7
:10266000FBD1204670BD00BF4CEC020808B50B2919
:102670000BD8DFE801F01206100A0A0A0A08080857
:102680000808012008BD0520FCE7054B6521054A27
:1026900005482AF0E5FD0020F4E70220F2E700BF3C
:1026A000F7EA020812EB02085CEB020808B50A29F7
:1026B00009D8DFE801F010060E080808080606062B
:1026C0000600012008BD054B8621054A05482AF071
:1026D000C7FD0020F6E70220F4E700BFF7EA020892
:1026E0009FEB02085CEB02082DE9F84391F81D808E
:1026F0000C4607464146FFF7B9FF94F81E90054681
:1027000038464946FFF7B2FF494606463846FFF7C6
:10271000CDFFA18A628B434B521A1A649A61228BB5
:10272000521A1A61E28A586342EA014220695A64E5
:102730006268D863DA602768802F28D0227F0FD89C
:10274000202F65D0402F63D0042F1AD045EA0265B0
:10275000344BC84545F40035DD615FD0324A44E072
:10276000B7F5807F04D0B7F5007FEFD12F4900E0A7
:102770002F4941EA0262DA61E2681A625E625861D8
:1027800032E045EA026242F40032DA61F6E7A76815
:102790003A1DDA62217F3A7845EA016545F4003551
:1027A000DD615E62586142B1012A21D0214B4FF4B4
:1027B0008871214A21482AF053FDDA69798822F488
:1027C0007F42013922F0100242EA01220121DA613E
:1027D000144BDA6942F02002DA61DA699206FCD41D
:1027E00010229A600029B9D0154A1A60BDE8F88312
:1027F000DA69FF39788822F47F4218BF0121013855
:1028000022F0100242EA002242F01002DA61DFE711
:1028100045EA0262034B42F40032B6E740F201227D
:10282000E3E700BF00B0024001020100090002001E
:102830000A000200EAEB020804EC02085CEB020862
:102840000102020038B50C46897FFFF72FFF174BB6
:10285000A58AE28A586342EA054221695A64628B7A
:10286000D963521B1A642568082D0ED19A611A612A
:1028700058620F4A207F42EA0062DA61E2681A6217
:102880000C4A5961D9601A6038BD0022D8611A61BA
:10289000E1680A0A4809C1F3C40102F4784200F46D
:1028A000FC6002430A439A63034AECE700B002402B
:1028B00009000100010202000102030040697047A3
:1028C00090F844007047036B23B9C06A003818BF02
:1028D000012070470120704780687047043010B5B0
:1028E0000C460FC884E80F0010BD704708B5034AB6
:1028F00040F21221024B03482AF0B2FC94EC020889
:1029000083050308EFEC020810B5044648212AF0BD
:1029100078FC204610BD00002DE9F0431C46436BB7
:10292000ADF51F7D05460E461746002B37D0002219
:1029300003A8DFF8A890CDE901320FF0E5FF4FF4CE
:10294000F4725021249024A809F02DFF3A46314614
:1029500024A80AF0A9FE012124A80AF027F80223DE
:1029600024A88DF8D8300AF0C5F8BDF898322B9A13
:10297000BDF89C629342A89F28BF1346419A964295
:1029800003EB4308A7EB430728BF1646479B9E422D
:1029900009D824A80AF02CF824A809F051FF0DF555
:1029A0001F7DBDE8F083012201A924A80AF0EBF8FD
:1029B0006B6B03EB0800984201D83C44E6E759787A
:1029C0009A78C90009EA022201F4FC610A4313F86B
:1029D000031B42EAD10224F8022BECE700F8FFFFC8
:1029E0000A4A02600022C0E90522C0E90722C0E9C4
:1029F0000922C0E90B22C0E90D12C0E90F2280F8BC
:102A00004420C0E90322C0E901227047C8EF020850
:102A100010B40C4611461A46036B3BB1036C806B35
:102A2000E41A20445DF8044B2AF047BEC06AF8E778
:102A3000036B10B573B1036C826BC91A5318525CE7
:102A400098785C780004DB7840EA0420104340EA80
:102A5000036010BDC36A5858FBE7036B43B1036CB6
:102A6000C91A836B5A18585C527840EA02207047A2
:102A7000C36A585A7047000070B50446006B0D4693
:102A80001646D8B1E36B934208D209230D4A65215B
:102A90000D4884F844300D4B2AF0E2FB0368DB68F4
:102AA0009847206B3246A16B03681B69984710B9A1
:102AB0000D2384F84430A06B256470BDE06A08449F
:102AC000FBE700BF51ED0208EFEC02083EED020803
:102AD0002DE9F843436904462BB9234BAA21234A25
:102AE00023482AF0BDFB08228169FFF7C5FFA169D1
:102AF00043F2300646F2643704312046FFF798FF70
:102B0000A3691844A36A00F108029A4206D301237C
:102B100000206361236AA361BDE8F883636909301B
:102B20000822013320F0010120466361A161FFF713
:102B3000A3FFD4F8189020464946FFF78EFF09F10D
:102B4000020180462046FFF788FF09F1040105468F
:102B50002046FFF76DFFB045D2D1BD42D0D100284D
:102B6000CED00120D8E700BF93ED0208DCED0208CB
:102B7000EFEC02082DE9F04F0446ADF51F7D8A46C3
:102B80001646816908229846FFF776FFA769204616
:102B9000391DFFF74DFF07F10801024605462046A3
:102BA000FFF76AFF636B074633B93C4B40F2AB114A
:102BB0003B4A3C482AF054FB002203A8CDE90132ED
:102BC0000FF0A2FE4FF4F4725021249024A809F0D3
:102BD000EAFD2A46394624A80AF066FD012124A808
:102BE00009F0E4FE022324A88DF8D83009F082FF12
:102BF000BAF90250479BAB4229D3BAF900904FEA89
:102C00004808BAF804702B9B08FB05664F44BAF8D5
:102C10000250DFF894B03FB29F4228BF1F46BAF877
:102C2000063009EB490A1D44419B2DB29D4228BF45
:102C30001D46479BAB4210D324A809F0D9FE24A817
:102C400009F0FEFD01200DF51F7DBDE8F08F01228A
:102C500001A924A809F097FFCCE7012201A924A823
:102C600009F091FF626B49465244B94202F10302F6
:102C700001D34644DDE712F8020C12F8013CC00013
:102C80000BEA032300F4FC60034312F8030C43EA4D
:102C9000D00326F811300131E7E700BF0FEE02083C
:102CA00065EE0208EFEC020800F8FFFF0129036857
:102CB00038BF0121DB6A70B50D4604469847A8422B
:102CC00004D223682046DB6A984705466B1EE669F6
:102CD0001022204606EB031606F10801FFF7CCFE92
:102CE00006F110012046FFF7A3FE236A043B0344CC
:102CF000C4E9055370BD00002DE9F34100210446ED
:102D00004822816180F84410FFF7B6FEA7690423CA
:102D1000634A39462046FFF77BFE40B10323614AF0
:102D2000F22184F84430604B60482AF099FA07F1A8
:102D3000080104235E4A2046A161FFF769FE30B115
:102D40000423584AFA2184F844305A4BECE707F13F
:102D50000C010423584A2046A161FFF759FE06469C
:102D600038B105234F4A40F2011184F84430534BE7
:102D7000DAE707F110012046FFF75AFE054620B9B1
:102D80004F4B40F20711474ACEE707F114080423DE
:102D90004C4A20464146FFF73BFE00284BD0062315
:102DA00084F844300423484A07F118012046FFF70D
:102DB0002FFE002841D0072384F844304544434F78
:102DC0000C2220462946FFF757FE05F1080604238A
:102DD0003A4620463146FFF71BFE94F8443000285F
:102DE0004AD0002B4AD1A36A291DAB424AD805F12B
:102DF0000C03291D2046A3610191FFF719FE304401
:102E0000019960622046FFF713FE06440422204623
:102E10003146FFF731FE04232D4A31462046FFF7A5
:102E2000F7FD002839D10123E6616361A3692362BC
:102E300002B0BDE8F0810126B4E7002EBED007F154
:102E400020012046FFF7F4FD4FF47A7307F13001BB
:102E5000B0FBF3F060602046FFF7EAFD07F14001A8
:102E6000A0602046FFF7E4FD07F14401E060204642
:102E7000FFF7DEFD2061A1E7002BB8D00A2384F81C
:102E80004430D5E72046FFF7D3FD08300C22054437
:102E900020462946FFF7F0FD97E70B23EFE700BF39
:102EA000BFEE0208DDEE0208C4EE0208EFEC0208F5
:102EB0000AEF02080FEF020827EF02082CEF0208C2
:102EC00042EF02084EEF020853EF020858EF0208E3
:102ED0005DEF0208C0E90A2100220263FFF70CBF80
:102EE00010B5002304460846E3620B6821639B6823
:102EF0009847A0622046BDE81040FFF7FDBEF0B441
:102F0000BDF81050BDF814602AB123B1CDE90456C4
:102F1000F0BCFFF701BDF0BC704700002DE9F04F99
:102F20009946436985B004460F4690462BB92A4B13
:102F300077212A4A2A482AF093F908228169FFF763
:102F40009BFDA66920463146FFF787FDB11C8346ED
:102F50002046FFF782FD311D82462046FFF768FDBF
:102F600006F10801A36A054642189A4227D243F2A5
:102F700030039B4517D146F264339A4513D190B183
:102F80000246A1612046FFF777FD0E9B01462A46C7
:102F90002046CDF80080CDE901933B46FFF7AFFF17
:102FA000636901336361A3692B448DB1A361A36994
:102FB000626A013323F001039342A3610AD1012025
:102FC000236A6061A36180F0010005B0BDE8F08F65
:102FD0000833EBE70020F6E793ED020862EF020802
:102FE000EFEC0208012070470C2070470C2303FB14
:102FF0000100083070470C2303FB010008307047C4
:10300000012070474FF4F47070474FF4F47303FBE2
:103010000100083070474FF4F47303FB01000830DF
:103020007047012070471020704700EB01100830F6
:10303000704700EB011008307047084600F03CBEB6
:10304000034B10B50446036016F07CFC204610BD0F
:1030500070F0020810B50446FFF7F2FF1421204675
:103060002AF0CFF8204610BD034B10B5044603608C
:1030700016F068FC204610BD3CF0020810B504466E
:10308000FFF7F2FF4FF4F87120462AF0BAF8204615
:1030900010BD0000034B10B50446036016F052FC4F
:1030A000204610BD08F0020810B50446FFF7F2FFF5
:1030B000182120462AF0A5F8204610BD084B10B56F
:1030C0000446036000F50770FFF7BAFF04F12C0017
:1030D000FFF7CAFF04F11400FFF7DCFF204610BD24
:1030E000A4F0020808B50248FFF7E8FF08BD00BFDA
:1030F000FC09002010B50446FFF7E0FF4FF46471AF
:1031000020462AF07EF8204610BD00002DE9F3414C
:1031100000F052FC0024054600F052FC2346014614
:103120002246284600941CF009FC254B254A2046DF
:10313000254D1A6001F06CF924481CF067FB2B68E0
:10314000BFF35B8FDB0735D428462AF05CF888B3E1
:103150001F4C204B04F50D7604F1140004F12C08EB
:1031600004F5077723606060C4F80880E760266193
:1031700016F0EAFB184B4046636116F0E5FB174B6F
:103180003846E36216F0E0FB154B04F50C70C4F80A
:103190001C3201F0B9F9224604F50C71304601F0F9
:1031A000A9F9304600F088FD0E482AF077F8284645
:1031B0002AF035F80C4802B0BDE8F041FFF79EB8A0
:1031C00040580120AC1B0020F80900200C00002012
:1031D000FC090020A4F0020808F002083CF00208F4
:1031E00070F00208E5300008301B00207047000036
:1031F000014816F0B8BE00BF301B002070B5224E4B
:10320000224B234C3046234D2360FFF715FA284606
:1032100020F06EFE204B00224FF480711F481A866A
:1032200083F858205A6683F870205A67DC60C3E937
:1032300012121B49C3E91A121A4999671A490B60FD
:103240004FF4F0710180194801804FF488711848DB
:10325000C3E90422C3E90622C3E90822C3E90A221A
:10326000C3E90E22C3E91022C3E91422C3E91722DD
:10327000C3E9016501800F4883F8342001800E49BD
:103280000A700E4A1A6070BD900D00209CE702087B
:103290008C0D0020B01B0020301B0020D8570120CF
:1032A0000100000100000101E4570120DE57012068
:1032B000DA570120E0570120DC57012028E90208F5
:1032C0000148FFF795B900BF900D0020002070471E
:1032D00081807047C180704701817047418170478C
:1032E0007047704770477047704710B4C4880368D0
:1032F000121B84885B6D091B12B25DF8044B09B286
:1033000018474FF6FF7383814FF0FF330362136852
:10331000C3611060704790F825201AB190F82420FE
:1033200002B1186070470000034B902283F85A23C3
:1033300083F85823704700BF00E100E0094A0A49BA
:10334000D3680A48C3F30A03013B9BB20B8011699F
:10335000C1F30A01013901801364536B43F0010387
:103360005363704700680140361C0020341C002065
:10337000014BD3F8AC00704700680140024B0122BA
:10338000C3F8AC105A62704700680140124A536992
:10339000DB0370B51ED50023C2F88430BFF34F8F16
:1033A000D2F8803043F6E074C3F3C900C3F34E3360
:1033B0005B0103EA0406014646EA81750139C2F859
:1033C0007452F9D2203B13F1200FF2D1BFF34F8F8B
:1033D000BFF36F8F70BD00BF00ED00E07047382372
:1033E000002201FB0333C25490F838300BB9036C50
:1033F00083647047704710B50446582129F001FFD7
:10340000204610BD38B5044616F099FD23685D6E60
:1034100019F0C4FD01462046A8472368084A204603
:10342000D3F888500023A2F57F31A847054B064A00
:103430005A60064A1A649A644FF4FF225A6438BDEF
:1034400000F807C000240020B823002000F40BC0BF
:1034500016F05CBD16F066BD16F022BD16F091BEEA
:1034600090F8252012B103685B6918477047000087
:1034700008B531B1044B40F29711044A044829F0D1
:10348000EFFE90F8390008BDB0F00208C4F0020861
:1034900051F2020810B531B1064B40F29111064AC3
:1034A000064829F0DDFE406811460368BDE810407B
:1034B0001B6B1847B0F0020893F2020851F20208A1
:1034C00008B529B1034B7A21034A044829F0C8FE04
:1034D000006908BDB0F0020844F4020851F2020885
:1034E00008B529B1054B8321054A064829F0B8FEE5
:1034F00041618160C0E9063208BD00BFB0F002083A
:10350000FCF5020851F2020810B5044629B1274B18
:10351000A421274A274829F0A3FE052A34D8DFE84A
:1035200002F003292F34393E406803681B6998472D
:1035300050B34FF0FF31606D06F0BAFE0023012258
:1035400094F83E1084F83B3084F83920A36063611E
:1035500001B1226284F83E306362E36A2BB9012331
:10356000206D84F83A3006F08DFF606DBDE81040A4
:1035700006F0CEBE002380F8393084F83E3003E0F8
:10358000036200238360436110BD036200238360F4
:103590004361F2E7002380F839300123EDE7003B77
:1035A00018BF012380F83D30EEE700BFB0F00208FD
:1035B000BBF7020851F2020870B50446164629B15D
:1035C000314BE721314A324829F04AFE90F8393030
:1035D00033B1304B1B6893F86B204369134443614C
:1035E000E36A002B4DD0E169D4E905325343A26868
:1035F0004A43934220D2236A002B42D04FF0FF313E
:10360000606D06F055FE236A0BB10023E362E36AA6
:10361000FBB90125606D06F07BFE94F839300BB9DB
:10362000236A3BB1E36A2BB90123206D84F83A3059
:1036300006F028FF284670BD94F84C000028DDD025
:103640009B1AB3FBF1F2994298BF02F1FF3262621A
:10365000D4E7002294F83C50A3623046E262E2686C
:103660002261A2680132A260336333685B699847C4
:10367000002DCED194F83D30002BCBD184F83950B9
:10368000C8E70125C9E700BFB0F0020892F90208B7
:1036900051F20208E4570120034B4FF080629A6018
:1036A0004FF080729A60704700E100E0084B4FF0E5
:1036B0008062C3F88820BFF34F8FBFF36F8F4FF046
:1036C0008072C3F88820BFF34F8FBFF36F8F7047AE
:1036D00000E100E038B5034690F8380038BB01221D
:1036E0009860D8609A634FF4807258619A874FF45B
:1036F000F0729861D861186258629862D862186353
:10370000586383F83E00CA864FF4887281F834000B
:103710000A8708639A6C186102F5FF24D3E9101533
:1037200029448C420AD9084B5821084A03E0084B27
:1037300040F2F511074A084829F092FD1A6302F594
:103740007F329C645A6338BDF0FC020830FD0208E9
:1037500036FB020866FB020851F2020810B5144C51
:10376000236823B3134B144A1B6C11888B4213D16B
:10377000124B198802F0A6FC226892F86A300133D5
:1037800082F86A30FEF7E4FE206817F025F9002081
:10379000BDE81040FEF7E2BC02F094FC206803682C
:1037A0001B6A98470020BDE81040FEF707BD10BD1A
:1037B000E457012000680140361C0020341C002022
:1037C0002DE9F74304464FF4707894F83A304FF0FF
:1037D000FF31002B31D0606D06F06AFD276BA36AC4
:1037E000BB4200D1676B266A656856B32B683146C9
:1037F00028465B6A98470023236284F83B30606D5B
:1038000006F086FD2B684FF4F0723946CDF8008043
:1038100028465E694FF48873B0474FF0FF31064683
:10382000606D06F045FD94F83B30E3B1002384F869
:103830003B30606D06F06CFDC7E7206D06F0E8FDDB
:10384000C3E7636A002BDAD02B682846D3E90993D3
:103850009847616A01442846C847A368626A66625D
:103860001344A360CBE7E7625EB12B6828469B6AEE
:10387000984701380023E06084F83C6084F83A30CF
:10388000D7E70120F6E70000014808B5FFF798FFE9
:10389000002400200368042270B504465E6A0023F9
:1038A0000D46B0474FF0FF31606D06F001FD382343
:1038B00003FB0542D16A09B10021D16203FB054532
:1038C000012385F83B30002385F83930606DBDE871
:1038D000704006F01DBD38B500EB810304460D466F
:1038E000114658680368DB68984729462046FFF769
:1038F000D1FF38BD70B50D461146044600EB850278
:103900005068026896681A46B04729462046FFF775
:10391000C1FF70BD38B5164900251648FFF760F89D
:10392000154C164B01202A46294623604FF480731C
:10393000A564A38784F84C0084F83E50C4E9105570
:10394000C4E91455C4E90155C4E90355C4E9055552
:10395000C4E90755C4E90955C4E90B55C4E90D5537
:1039600006F000FD2065284606F05EFC606538BD67
:10397000381C0020B823002000240020E0FE0208AC
:10398000704710B50446042129F03BFC204610BDC9
:10399000012908B506D0022908D059B900F084FDE4
:1039A000006808BD00F080FD4068FAE700F07CFD8B
:1039B0008068F6E70020F4E70048704728FF020817
:1039C0000320704713B5002451B1036801AA019484
:1039D0008DF803409C680DF10303A04702B010BDB1
:1039E0000846FBE7C0897047008A7047C088704767
:1039F00080887047807A00F07F007047807AC00925
:103A00007047704710B50446082129F0FAFB20469C
:103A100010BD7047704700F598730868496803C384
:103A2000704770477047416070477047064BC0F859
:103A30004801C0F84C310023C0F8503100F5A273A2
:103A4000C0F84031704700BFF13A0008012303720B
:103A500070477047704710B441680346C2689B685E
:103A6000541001EB6200D20748BF0A595DF8044BBD
:103A700048BFD358184743682BB183682BB9C06837
:103A800000F001007047184670470120704710B5DC
:103A900004460C2129F0B5FB204610BD10B50446A4
:103AA000102129F0AEFB204610BD10B504464FF49E
:103AB000AE7129F0A6FB204610BD10B519F06EFAC4
:103AC0000368BDE81040DB6B184710B50446D0F81A
:103AD000400158B10368DB68984738B1D4F8400119
:103AE00003689B6898470023C4F8403110BD00006C
:103AF0002DE9F14FD0E9555A0746A86803681B6ABB
:103B00009847B0F5F47F05D2454BA321454A464876
:103B100029F0A6FB686803681B6A98470F2803D83A
:103B2000424BA4213F4AF2E7E86803681B6A9847C2
:103B30000B2803D83E4BA5213A4AE8E7DFF8F89076
:103B400019F02CFA043019F04EFAD9F8000010B12F
:103B50000368DB689847D9F8000010B103681B6858
:103B60009847DFF8D880D8F8000010B103685B6987
:103B70009847D7F83C0110B103685B689847D8F8BC
:103B8000000010B103681B689847D7F83C0110B1DA
:103B900003689B689847E86800214FF0000B0368B2
:103BA0005B6A9847234B0446C0F804B0036059464B
:103BB00080F808B0A86803685B6A9847064600F07A
:103BC0001BFD6868594603685B6A9847054631469D
:103BD00000F0E6FCC9F80040C7F83C51C8F80060A6
:103BE000E5B12B1DCAF8003030463368C5F808A08F
:103BF000DB68F56398472B6828461B689847214681
:103C000030461AF097FE236820461B6998472368C0
:103C100020465B6901B0BDE8F04F18472B46E1E74D
:103C200074FF020802000308060103084D0103089F
:103C3000F00103080803030824580120205801203C
:103C4000044B1B6893F858200AB1D86C00B99868E7
:103C5000704700BFE4570120F8B5044617460E46EA
:103C600019F062FA104B00251C6029460F4B2360A7
:103C70000F4BC4E951350F4B1868C4E9535503681D
:103C8000C4E94F559B68C4E955769847284600F02B
:103C9000BFFBFFF7D5FF21F05AFFFFF7D1FF21F05F
:103CA000D1FF2046F8BD00BF30580120B402030800
:103CB0009C020308E4570120064BC0F84801C0F8F5
:103CC0004C310023C0F8503100F5A273C0F84031E8
:103CD000704700BFF13A0008406A7047806A704739
:103CE00070478B88C069DB0A0A6850F823001044CB
:103CF000704710B5C2B1137BB3B1547BD27A2402A2
:103D000004F4E0641443026A98B202EB840213885C
:103D10008B4202D192F9020010BD05D8013804325D
:103D200080B20028F3D1F7E70020F5E710B504468C
:103D30002C2129F066FA204610BD000030B58BB06A
:103D40000446BDF860500895BDF85C5007959DF895
:103D5000505006959DF84C5005959DF84850049597
:103D60009DF8445003959DF8405002959DF83C50B5
:103D70000195BDF8385000951AF036FA064B2046EA
:103D80002360159BE361169B2362199B63621A9B58
:103D9000A3620BB030BD00BF2C030308806A7047DC
:103DA000704770477047704770477047704770475B
:103DB00070477047704730B444680346C2689B68D8
:103DC000551004EB6200D20748BF625930BC48BFAF
:103DD000D358184743682BB183682BB9C06800F0EB
:103DE00001007047184670470120704790F82D3049
:103DF00080F89A3080F85C30704790F82D3080F869
:103E00005C3070470146343091F82C3013B1623188
:103E100017F079BB6031FBE708B590F82C303BB167
:103E200000F1B0031B68C0F89430FFF7EBFF08BD4A
:103E300000F1AC03F6E710B50446642129F0E1F97E
:103E4000204610BD10B50446B42129F0DAF9204609
:103E500010BD10B50446102129F0D3F9204610BD3D
:103E600010B504464FF4AE7129F0CBF9204610BDD1
:103E700010B50446006B50B10368DB68984730B159
:103E8000206B21460368BDE810409B68184710BDB1
:103E900000F198028A4202D10368DB6A1847704732
:103EA0000B7970B504460D4690F82C609BB98EB91D
:103EB000B3FA83F320465B0984F82C302368D3F8E7
:103EC0008C309847236820465B69984716B12B7958
:103ED000012B03D070BD002EFCD0E9E723682046FB
:103EE000D3F88830BDE870401847036870B50446C1
:103EF0001B6B154698472368204629465B6BBDE837
:103F000070401847036870B504469B6B1546984788
:103F1000236820462946DB6BBDE8704018470B88B4
:103F200037B50546A0F860301388044625F8623F8F
:103F300028461BF017FD019028461BF047FD01990C
:103F400002462046FFF7DEFF23682046D3F88C3078
:103F500003B0BDE8304018470022C0E90122C0E9A3
:103F60000322C0E90522C0E907224FF4807282844F
:103F7000014A0260704700BF8C03030838B504464D
:103F80000D462622002129F090FB2046FFF7E4FF92
:103F9000064B2046294623602B88E384FF2384F8C0
:103FA000283017F0B0FA204638BD00BF482B030870
:103FB0004FF47F43F7B5838540F201130025064691
:103FC00083840446124B4FF6FF77856201A905638F
:103FD000ADF80470C0E90155C0E90355C0E90555C5
:103FE000C0E9075546F8343B3046FFF7C7FF2A467D
:103FF00029463046A4F86070A4F86270FFF775FF98
:104000002046314615F0B2FC204603B0F0BD00BF9B
:10401000F40303082DE9F04F044685B000251AF09B
:10402000DDFAA0465D4B26222946E56304F16C09C2
:1040300048F8403B404629F038FB4046FFF78CFFEC
:10404000574B04F198064FF6FF7A2364FF2302A929
:10405000484684F8663004F1FC07A566ADF808A070
:10406000FFF78CFF3046DFF850B1FFF7A1FF4D4B53
:1040700026222946C4F89830384629F016FB3846DF
:10408000FFF76AFF484B39463046C4F8FC304FF41E
:104090007F03A4F828A104F1040AC4F830314FF0DA
:1040A000FF33C4F824B1C4F82C51A4F83451C4F837
:1040B0003851C4E94F35C4E9515515F057FC3B4B15
:1040C0002A4629464046C4E95334394BC4E955359C
:1040D000FFF70BFF4FF4887240464FF4F071FFF783
:1040E00011FF4FF07F4341465046A3664FF0020850
:1040F00015F03CFC2A4629464846FFF7F6FE02A981
:104100004846ADF8085017F0FEF94946504615F0FC
:104110002DFC012302AA01A93046ADF80430ADF808
:104120000880FFF7FCFE2A46294604F1CC00FFF781
:10413000DCFE02A93846CDF808B0ADF80C5017F0F7
:1041400087F9B4F9A2203846B4F9A010FFF7DAFED7
:10415000414638462B22FFF7C8FE7422802138469C
:10416000FFF7D0FE134B3046C4E95133FFF754FE3E
:1041700004F5A67330464E22C4F8C830BA21FFF7C2
:10418000B4FE742230468021FFF7BCFE5046314613
:1041900015F0ECFB204605B0BDE8F08F4C05030898
:1041A000E02A030894040308502A0308340503088E
:1041B000913E00080A0A0AFF6CFF020870470000DF
:1041C00030B5164D8FB02C68BFF35B8F14F001042F
:1041D00020D1284629F017F8E0B13F2301221049E9
:1041E0000993104B10480893104B0A940594CDE99D
:1041F00006430423CDE903320A23CDE90B4400939F
:10420000CDE90144FFF79AFD094829F047F828460F
:1042100029F005F804480FB030BD00BF5824002035
:1042200084CE0590203003085C2400202C30030845
:10423000BD4100087047000030B5164D8FB02C68A6
:10424000BFF35B8F14F0010421D1284628F0DBFF77
:10425000E8B13F23012210490993104B10480893FD
:10426000104B0A940594CDE906430423CDE90332AB
:10427000142305220093CDE90B44CDE90144FFF757
:104280005DFD094829F00AF8284628F0C8FF0448CF
:104290000FB030BD8824002094CE05902430030850
:1042A0008C2400203030030835420008704700009D
:1042B00030B5164D8FB02C68BFF35B8F14F001043E
:1042C00020D1284628F09FFFE0B13F23012210496A
:1042D0000993104B10480893104B0A940594CDE9AC
:1042E00006430423CDE903322823CDE90B44009390
:1042F000CDE90144FFF722FD094828F0CFFF284609
:1043000028F08DFF04480FB030BD00BFB824002056
:10431000DCCE059028300308BC240020343003088C
:10432000AD42000800207047002070470EB403B56E
:1043300003AB002153F8042B019319F07DFD02B06B
:104340005DF804EB03B070470CB407B504AB53F849
:10435000042B019319F070FD03B05DF804EB02B07B
:1043600070470000436C10B5044673B3038F2BB93C
:10437000184BC521184A194828F072FFC38E00EB6C
:1043800043035B8C0BB31BF005F8238F012B03D881
:10439000134BCB21134AEEE7E28E40F63F10531C3D
:1043A0009BB2092B194688BFA3F10A0104EB410116
:1043B000498C814209D10A2B04EB420228BF002319
:1043C000508C04EB4303588451842046BDE81040D0
:1043D0001AF0E2BE7C0503088505030830060308D1
:1043E0007A060308880603081AF09FBE10B586B047
:1043F00002AC84E806001A460AAB214605930193F5
:10440000099B0093089B18F067F906B010BD0000E7
:1044100038B518BB124B13481C681349B4B1226855
:1044200022440260626822440A60A26814440F4B6E
:1044300000221A8000F038F8054600F033F80C4BE3
:104440001C600C4B1D600C4B188007E00B4B03608D
:104450000B4B0B600B4B1C68002CE8D138BD00BF28
:10446000E8240020EC240020F0240020F424002084
:10447000345801203C58012038580120F0CE0590D6
:10448000ECCE059000CF0590044B1B6853F821003B
:10449000034B1B6803EB4000704700BFF024002073
:1044A000EC2400200120704700487047F8240020C9
:1044B00010B5054CFFF7C0FE2060FFF7F9FE606005
:1044C000FFF77EFEA06010BDF8240020704710B5F5
:1044D00004464FF4AE7128F094FE204610BD10B58E
:1044E0000446D0F8580100F012F82046BDE810400C
:1044F00018F0D6BD10B50446FFF7AEFB014B2046C1
:10450000236010BD640703080022026070477047F3
:1045100070B500220C461348134905F0E9FA012250
:104520001249134805F024FB124B187008B1FCF730
:1045300075FF0F4D104E2A460421204605F043FD1D
:1045400020B90B48BDE8704005F024BD2046FBF7BC
:104550005FFE4FF47A7382B22146304603F0D9FFF2
:10456000E9E700BF60050020C4090020B007030888
:1045700094070020042500208004002070470438A0
:104580007047704710B50446102128F03AFE2046C7
:1045900010BDA0F10400F5E78068FFF7B9BF000087
:1045A0000022C1608260044A10B502F1080424327E
:1045B0000460426010BD00BFB807030870470146A1
:1045C000C06B036801F5AE711B691847034B10B54A
:1045D00004460360FFF7EAFB204610BDEC07030822
:1045E00010B50446FFF7F2FF4FF4F471204628F0AF
:1045F00008FE204610BD000010B50446FFF70AFD76
:10460000014B2046236010BDEC070308FFF7CFBB2A
:1046100000B54FF4807295B04FF0807103460C9254
:1046200005220F9101210692002201910B92139213
:1046300000920B48CDE90312CDE90D22CDE91122FC
:10464000102206A902924FF4800205926A4601F0F8
:104650001BFF003818BF012015B05DF804FB00BF38
:104660000825002000B54FF4807395B041F28832E0
:1046700017480C93062306A906930023CDE90D33B2
:104680000F930B931393CDE9113301F0BAFEE0B908
:10469000022301224FF4800104900D48CDE900333C
:1046A0001023CDE9023205236A46CDE905134FF008
:1046B000807306A90F9341F2883301F0E5FE0038BC
:1046C00018BF012015B05DF804FB0120FAE700BF18
:1046D0000825002000B54FF4807391B04FF0407270
:1046E0000E480893EB2302A902934FF44063099309
:1046F0004FF4005305930023CDE90A320A220F93A9
:1047000007926A46CDE90D33CDE9003301F00CFF85
:10471000003818BF012011B05DF804FB0825002007
:10472000454B012145489A6B42F00202F0B59A636D
:104730008DB09A6B09240427002602F00202404D36
:104740000092009A9A6942F002029A619A6922F0F4
:1047500002029A611A6B42F002021A631A6B02F0AB
:1047600002020192019A1A6B42F002021A631A6B5A
:1047700002F002020292029A1A6B42F008021A63D5
:104780001A6B02F008020392039A1A6B42F00802B5
:104790001A631A6B02F008020492049A1A6B42F030
:1047A00010021A631A6B02F010020592059A1A6B36
:1047B00042F008021A6340221B6B03F008030693C1
:1047C000069B0223CDE907230323CDE909130A231E
:1047D00007A90B9300F0DEFD07A918480797099673
:1047E0000B9400F0D7FD4FF4006307A928460B9403
:1047F000079300F0CFFD4FF4805307A928460B9490
:10480000079300F0C7FD07A90E4807970B9400F027
:10481000C1FD4FF4005307A928460B94079300F0FD
:10482000B9FD32460F215C2000F0D8F95C2000F081
:1048300007FA0DB0F0BD00BF00380240000402408E
:10484000000C024000100240F0B5494C91B0494BB9
:104850002046236001F0C2FD054610B1012011B0D1
:10486000F0BD01462046FFF75BFF012604234FF011
:104870008077C4E901631023E36097FAA7F3B3FAE2
:1048800083F32046013B23614FF4A063C4E907553D
:10489000C4E9053501F04EFD0028DFD14FF48075E5
:1048A00066230B9041F28832079002A90F90089579
:1048B0000293CDE90900CDE90D00204601F0A1FDEC
:1048C00008B10420CBE7992341F2883202A920469F
:1048D000029301F096FD0028F3D141F28830FFF7F2
:1048E00097FE0028EDD18523079041F2883202A976
:1048F000089502930B97CDE90900CDE90C60CDE94D
:104900000E00204601F07DFD0028DAD141F2883208
:104910000DF10701204601F0EDFE0028D1D1FFF78F
:10492000A1FE0028CDD18123F022029392FAA2F2B7
:104930000A219DF80730B2FA82F2204603F00F03F5
:1049400001FA02F202A9134341F288328DF80730CE
:1049500001F057FD0028B4D141F288320DF1070172
:10496000204601F06BFE00283FF479AFA9E700BFB5
:1049700008250020001000A00F490020D1F8883041
:1049800043F47003C1F888300C4B1A6842F00102FE
:104990001A6098601A6822F0847222F480321A60D9
:1049A000074A5A601A6822F480221A60D8604FF0D1
:1049B00000638B60704700BF00ED00E000380240EC
:1049C000103000247047002070470000002337B5E6
:1049D0008DF807300D4B1A780AB901221A7003249A
:1049E000C5B2013CA8212846FDF79CFB14F0FF044A
:1049F0008DF807009DF80730DBB203D19DF8070062
:104A000003B030BD512BECD1F8E700BF5625002094
:104A100013B500240221C0B28DF80740FDF782FBD8
:104A20008DF807009DF8073003F00F038DF807306D
:104A30009DF80730052B01D98DF807409DF8072018
:104A4000034B9DF807005A7000229A7002B010BD07
:104A5000562500202DE9F74F2F4C15464FF0000842
:104A60000F46A37862788DF807809A424DD9092BBA
:104A70004ED803EB43035B00DBB2191D03F1030BBC
:104A800003F1060A0533C9B25FFA8BFB5FFA8AFAB3
:104A90005FFA83F8C6B2DFF884903046FDF742FB38
:104AA0008DF807009DF8073059463046A9F80030C8
:104AB000FDF738FB8DF8070051469DF8073030466A
:104AC000B9F800201B0203F4706313433B80A9F87C
:104AD0000030FDF727FB8DF8070041469DF80730B1
:104AE0003046A9F80030FDF71DFB8DF807009DF852
:104AF0000730B9F800201B0203F470631343A9F8D0
:104B000000302B80A3780133A37003B0BDE8F08F91
:104B1000C246C3464146BDE7562500205425002025
:104B20000122A421C0B2FDF7E3BA0022A421C0B241
:104B3000FDF7DEBAFFF7F9BF70470000024B1A78A5
:104B40000AB901221A70704756250020074A03202F
:104B500008B5136843F48073136000F02DF800204B
:104B6000FCF7CEFFFCF75CFC002008BD003C0240D7
:104B7000034A044B11681B780B441360704700BF55
:104B80005C2500203C000020014B1868704700BFE6
:104B90005C25002038B50446FFF7F6FF0546631C88
:104BA0001EBF044B1B78E418FFF7EEFF431BA34224
:104BB000FAD338BD3C00002007490302CA6803F459
:104BC000E06322F4E0621204120C134343F0BF636B
:104BD00043F40033CB60704700ED00E0164B30B576
:104BE000DC68C4F30224C4F10703251D042B28BF8D
:104BF0000423062D4FF0FF358CBF033C002405FA3B
:104C000003F3002805FA04F521EA030322EA05026A
:104C100003FA04F343EA02034FEA0313DBB206DBB1
:104C200000F1604000F5614080F8003330BD00F0D5
:104C30000F00024A1354F9E700ED00E014ED00E024
:104C4000002807DB4109012300F01F00024A8340CE
:104C500042F82130704700BF00E100E000280CDB83
:104C60004309012200F01F0004492033824041F82B
:104C70002320BFF34F8FBFF36F8F704700E100E039
:104C8000BFF35F8F044B5A6A22F480325A620022CB
:104C9000C3F89420704700BF00ED00E0064B40F0E1
:104CA0000100C3F894005A6A42F480325A62BFF39A
:104CB0004F8FBFF36F8F704700ED00E04378144AC9
:104CC00010B5C2F898300178E9B14368C2F89C3059
:104CD000C37A047B1B0643EA04730B43817A43EADD
:104CE000C143417B43EA8143817B43EA4143C17B2A
:104CF00043EA0143417A43EA0123017A43EA41034B
:104D0000C2F8A03010BDC2F89C10C2F8A010F9E79C
:104D100000ED00E010B5044608B9012010BD437F46
:104D200003F0FF0213B90277FCF798FB02236377C5
:104D30002379E3B92368134A5A619A6822F018026A
:104D40009A6062792368D2B94FF0FF321A6100206D
:104D50009A68616922F060020A43A1699A609A68C0
:104D600022F080020A439A6001236377D6E7D4E9F0
:104D70000212204600F008F80028E2D0CDE72269B0
:104D8000E4E700BFB71DC1041F2310B5013B1CD3CE
:104D900021FA03F4E407F9D5102A12D004D83AB165
:104DA000082A10D001200BE0182AFBD1062BF9D8D5
:104DB00000684161836823F0180313438360002077
:104DC00010BD072BF3E70F2BF1E7002AEAD1EFE73D
:104DD00003681821DAB223F47F73103A23F0030337
:104DE000B2FBF1F110B55F2A034C88BF0433615C5C
:104DF0008365C165184610BD3408030870B50446C4
:104E0000FFF7C2FE0546002C71D00223226884F809
:104E10003530002384F83430136823F00103136025
:104E200022681368D8072ED413683248A169184045
:104E3000D4E901352B43E5682B4325692B4365698C
:104E40002B43E5690B432B43256A2B430343606ADD
:104E5000042802BFD4E90B5635432B4304281360C2
:104E6000536923F0070343EA000332D1A06AE56ADD
:104E7000034375B391B9012820D030F0020128D145
:104E8000E90126D51DE0FFF77FFE401B0528C7D9A5
:104E900020230320636584F8350070BDB1F5005F01
:104EA00013D1032815D801A151F820F0C34E0008F2
:104EB000814E0008C34E0008BD4E0008B5F1C07F0A
:104EC00007D1402301206365E5E70228F9D90328CB
:104ED000D6D053612046FFF77BFFE26D3F2393401E
:104EE000836000200123606584F83530D5E7012018
:104EF000D3E700BF3F8010F070B590F83440866D66
:104F0000012C34D00124002580F8344090F835403D
:104F1000012C4FF0020428D180F835400468456523
:104F2000256825F48025256063608368402B19D1AE
:104F3000A260E160C26D3F239340B360236843F0F9
:104F400016032360636943F080036361036C1BB144
:104F5000236843F0080323602368002043F0010323
:104F6000236070BDA160E260E4E780F83450022065
:104F7000F7E770B50446866DFFF706FE054694F820
:104F80003530022B06D0802301206365002384F88E
:104F9000343070BD23681A6822F016021A605A690C
:104FA00022F080025A61226C0AB9A26C1AB11A6806
:104FB00022F008021A601A6822F001021A602368BF
:104FC0001B6813F0010308D1E16D3F2218468A40A7
:104FD000B260012284F83520D8E7FFF7D5FD401BE9
:104FE0000528ECD920230320636584F83500CDE73C
:104FF00090F83530022B03D08023436501207047A1
:105000000268052380F835300020136823F001037F
:10501000136070470023F7B5019308225B4B0446E9
:10502000856D1F68C36D2E689A4032420CD00168AE
:105030000868400708D5086820F004000860AA60E6
:10504000626D42F00102626501229A40324208D04C
:1050500021684969090604D5AA60626D42F002021E
:10506000626504229A40324208D0216809688807A4
:1050700004D5AA60626D42F00402626510229A4073
:10508000324210D02368196809070CD5AA601A6843
:10509000500337D51B68190301D4236C00E0A36CBF
:1050A0000BB120469847E16D20228A4032423AD027
:1050B00023681868C60636D5AA6094F83520052AF4
:1050C0001A6827D122F016021A605A6922F080026B
:1050D0005A61226C0AB9A26C1AB11A6822F008024D
:1050E0001A603F238B40AB60012384F835300023E6
:1050F00084F83430236D002B45D0204603B0BDE842
:10510000F04018471A68D205C7D41A6822F008027E
:105110001A60C2E7500327D51B68190331D4636CAA
:105120000BB120469847636D6BB3636DDA0719D5F1
:105130004FF416532268B7FBF3F7052384F8353094
:10514000136823F001031360019B0133BB420193F9
:1051500002D81368DB07F7D4012384F83530002325
:1051600084F83430E36CC6E71A6812F4807208D110
:10517000196821F010011960012384F8342084F8A3
:105180003530E36BCCE703B0F0BD00BF100000206A
:10519000406D704710B5044630B390F8393003F0D5
:1051A000FF021BB980F83820FCF76EF92268022351
:1051B0006168002084F83930136823F440330B43CE
:1051C000A1681360536B23F007030B43E16853633B
:1051D000136C23F47F5323F03F030B431364012329
:1051E000E06384F8393010BD0120FCE77047704758
:1051F000036870B55E6804461D68F20714D5E905BA
:1052000012D51A6822F480721A60C26B42F0010251
:10521000C26301229A60042380F83930002380F8A9
:105220003830436903B19847B20616D5AB0414D59C
:1052300023681A6822F400521A6020229A60E36BF5
:1052400043F00203E363042384F83930002384F835
:10525000383063690BB120469847300716D52905C9
:1052600014D523681A6822F400621A6008229A6032
:10527000E36B43F00403E363042384F83930002331
:1052800084F8383063690BB12046984772070BD514
:105290006B0509D5236820461A6822F480621A60DB
:1052A00004229A60FFF7A2FFB00714D5A90512D512
:1052B00023681A6822F400721A6002229A60E36B73
:1052C000E363012384F83930002384F838302369FC
:1052D0000BB120469847F20613D5EB0411D523688D
:1052E00020461A6822F480521A6010229A60E36BFA
:1052F000E363012384F83930002384F83830FFF762
:1053000076FF70BDF0B590F83830012B4FF00203F6
:105310002BD080F83930012200EB01131C4F80F8AC
:1053200038200E015D6AD3E9074244EA0242093C93
:10533000012C96BF05F07F4342EA05621A430368D9
:10534000A9B9596A012C01EA070142EA01025A622D
:1053500082699A6103D8426A22F07F429A620123ED
:1053600080F83930002380F838301846F0BDD9690C
:10537000012C01EA070142EA0102DA6100EB0602B0
:1053800092691A61EBD825F07F451D62E7E700BFFF
:10539000F0FFFC002DE9F74F0023DFF8B8916B4ACE
:1053A00001240D689C4004EA050CAC4340F0B48035
:1053B0004D684FEA4308032605F0030406FA08F691
:1053C000671EF643012F34D8876807EA060ECF68B8
:1053D00007FA08F747EA0E078760476827EA0C0EC6
:1053E000C5F300179F4047EA0E074760C768022CC5
:1053F00007EA060E8F6807FA08F747EA0E07C76044
:1054000019D14FEAD30A03F0070B4FF00F0E00EB50
:105410008A0A4FEA8B0BDAF820700EFA0BFE27EAA5
:105420000E0E0F6907FA0BF747EA0E07CAF820704D
:1054300001E0032CDAD1076804FA08F415F4403FC0
:1054400007EA060744EA0704046065D0D9F8444037
:1054500023F0030603F0030744F4804406F180467A
:10546000BF00C9F8444006F59C36D9F8444004F41E
:1054700080440194019C0F24D6F808E0BC402EEA39
:10548000040E334CA0424ED004F58064A0424CD0B0
:1054900004F58064A0424AD004F58064A04248D05C
:1054A00004F58064A04246D004F58064A04244D054
:1054B00004F58064A04242D004F58064A04240D04C
:1054C00004F58064A0423ED004F58064A0420CBF85
:1054D00009240A24BC40EF0244EA0E04B4606FEAD7
:1054E0000C06946854BF34404CEA0404AF02946044
:1054F000D46854BF34404CEA0404AF03D460546809
:1055000054BF34404CEA0404ED035460146854BFA3
:1055100034404CEA040414600133102B7FF440AF94
:1055200003B0BDE8F08F0024D4E70124D2E70224C1
:10553000D0E70324CEE70424CCE70524CAE70624F9
:10554000C8E70724C6E70824C4E700BF003C0140C1
:1055500000000240003802402DE9F04F0022494C83
:10556000DFF82891DFF828A1DFF828B1012303FA3A
:1055700002FE3EEA01050EEA01076CD122F00305A6
:1055800002F0030C0F26404B05F180454FEA8C0CCE
:10559000984205F59C3506FA0CF6D5F8088006EA1F
:1055A00008085DD003F5806398425BD003F5806303
:1055B000984259D003F58063984257D003F5806331
:1055C000984255D0484555D0504555D0584555D0AE
:1055D00003F58053984253D003F5806398420CBF83
:1055E00009230A2303FA0CF3434513D1236823EA62
:1055F00007032360636823EA07036360E36823EA21
:105600000703E360A36823EA0703A360AB6823EA08
:105610000603AB6056000323056802F0070CB34095
:105620000F274FEA8C0C25EA030507FA0CF70560F3
:10563000D50800EB85052E6A26EA07062E62C568A6
:1056400025EA0305C560456825EA0E0545608568BD
:1056500025EA030383600132102A87D1BDE8F08F69
:105660000023BFE70123BDE70223BBE70323B9E71C
:105670000423B7E70523B5E70623B3E70723B1E71C
:105680000823AFE7003C0140000002400014024044
:1056900000180240001C02400369194214BF012097
:1056A000002070470AB1816170470904FBE7436934
:1056B00001EA030221EA030141EA024181617047E4
:1056C00003689A69910701D500229A629A69D20704
:1056D00003D49A6942F001029A61704730B5039D84
:1056E000C1F3090104682B43606843EA0243054A99
:1056F0000B4342EA555223F0004320EA02000343E1
:10570000636030BDFF63FF0303682DE9F0419C69CE
:1057100005460F46164614F010046FD000241022E0
:10572000A046DA612B689A69900661D4B8F1000F3F
:1057300035D044F0040401202E68B369D90505D59D
:105740004FF4807244F001040120F2615A0505D53E
:105750004FF4806244F008040120F2619B054FD5AC
:105760004FF4007344F00204F3612846FFF7A8FFEA
:105770007368012023F0FF7323F48B3323F4FF734A
:1057800023F0010373606B6C23436B64202385F863
:105790004130002385F8423085F8403032E07A1CF1
:1057A000C1D0FFF7F1F9801BB84201D8002FB9D161
:1057B0002B68596895F842209869D2B200040AD53E
:1057C000490408D4202A06D05A6842F480425A601C
:1057D000FFF7DAF906462B689B699B06A2D4FFF710
:1057E000D3F9801B1928F6D920244FF0010899E736
:1057F000B8F1000F9DD12022DA619AE720469BE79D
:105800000028B2D1BDE8F08170B504460D461646B9
:1058100023689B699B0701D5002070BD324629464D
:105820002046FFF771FFA0B96A1CF1D0FFF7ACF971
:10583000801BA84201D8002DEAD1636C43F02003FD
:105840006364202384F84130002384F8423084F8D4
:1058500040300120E1E72DE9F041069F04468846EB
:1058600016461D462268936938EA03030CBF0123DC
:105870000023B34201D0002015E06B1CF3D0FFF7EA
:1058800083F9C01BA84201D8002DEBD1636C012025
:1058900043F020036364202384F84130002384F81C
:1058A000423084F84030BDE8F08170B504460D46C2
:1058B000164623689B699B0601D5002070BD3246C1
:1058C00029462046FFF720FF90B9FFF75DF9801BBE
:1058D000A84201D8002DECD1636C43F0200363642F
:1058E000202384F84130002384F8423084F840308B
:1058F0000120E3E710B5044600284AD090F8413073
:1059000003F0FF021BB980F84020FBF7DDFD2423E4
:1059100084F8413023681A6822F001021A60626834
:1059200022F070621A619A6822F400429A60D4E907
:105930000221012924D142F400429A605A680020D1
:1059400042F0007242F400425A60DA6822F40042E7
:10595000DA60D4E904210A43A16942EA0122DA604B
:10596000D4E907210A431A601A6842F001021A605A
:105970002023606484F84130206384F8420010BD25
:1059800042F4044202299A60D8D14FF400625A606E
:10599000D4E70120F3E710B5044698B10268242348
:1059A00080F84130136823F001031360FBF7D0FD4A
:1059B0000020606484F8400084F84100206384F88B
:1059C000420010BD0120FCE72DE9F74F994690F801
:1059D000413004460F46202B1646BDF834A0DDF8B2
:1059E000388040F0C6800C9B13B1BAF1000F06D18D
:1059F0004FF400736364012003B0BDE8F08F90F8AA
:105A00004030012B00F0B5804FF0010B80F840B022
:105A1000FFF7BAF81923054600905A464FF40041A3
:105A20002046FFF718FF0028E5D121235FFA89F20D
:105A30003946606384F84130402384F842300C9B3F
:105A40006064204663624C4BA4F82AA000934FF098
:105A50008073FFF743FE2A4641462046FFF7D4FEF7
:105A600018BBB9F1010F236815D1F6B200228021CD
:105A700020469E6243460095FFF7EDFEA8B9638D70
:105A80009BB2FF2B15D8628D4FF00073009092B23D
:105A90002285D2B212E0320A414620469A622A4654
:105AA000FFF7B2FE08B92368DFE7002384F840302F
:105AB000A1E7FF224FF080730090228539462046EF
:105AC000FFF70CFE2A4641462046FFF79DFE0028C0
:105AD00091D1636A226813F8011B91626362638D3E
